{
  "_format": "hh-sol-artifact-1",
  "contractName": "Subscription",
  "sourceName": "contracts/subscription.sol",
  "abi": [
    {
      "inputs": [],
      "stateMutability": "nonpayable",
      "type": "constructor"
    },
    {
      "inputs": [
        {
          "internalType": "address",
          "name": "_user",
          "type": "address"
        }
      ],
      "name": "checkExpirationDate",
      "outputs": [
        {
          "internalType": "uint256",
          "name": "",
          "type": "uint256"
        }
      ],
      "stateMutability": "view",
      "type": "function"
    },
    {
      "inputs": [],
      "name": "erc20Fee",
      "outputs": [
        {
          "internalType": "uint256",
          "name": "",
          "type": "uint256"
        }
      ],
      "stateMutability": "view",
      "type": "function"
    },
    {
      "inputs": [],
      "name": "ethFee",
      "outputs": [
        {
          "internalType": "uint256",
          "name": "",
          "type": "uint256"
        }
      ],
      "stateMutability": "view",
      "type": "function"
    },
    {
      "inputs": [],
      "name": "forTesting",
      "outputs": [
        {
          "internalType": "uint256",
          "name": "",
          "type": "uint256"
        }
      ],
      "stateMutability": "view",
      "type": "function"
    },
    {
      "inputs": [
        {
          "internalType": "address",
          "name": "_user",
          "type": "address"
        }
      ],
      "name": "lastPaymentOfUser",
      "outputs": [
        {
          "internalType": "uint256",
          "name": "",
          "type": "uint256"
        }
      ],
      "stateMutability": "view",
      "type": "function"
    },
    {
      "inputs": [],
      "name": "owner",
      "outputs": [
        {
          "internalType": "address payable",
          "name": "",
          "type": "address"
        }
      ],
      "stateMutability": "view",
      "type": "function"
    },
    {
      "inputs": [
        {
          "internalType": "uint256",
          "name": "_period",
          "type": "uint256"
        }
      ],
      "name": "payInAdvance",
      "outputs": [],
      "stateMutability": "payable",
      "type": "function"
    },
    {
      "inputs": [
        {
          "internalType": "uint256",
          "name": "_period",
          "type": "uint256"
        }
      ],
      "name": "paySubscription",
      "outputs": [],
      "stateMutability": "payable",
      "type": "function"
    },
    {
      "inputs": [],
      "name": "paymentOption",
      "outputs": [
        {
          "internalType": "uint256",
          "name": "",
          "type": "uint256"
        }
      ],
      "stateMutability": "view",
      "type": "function"
    },
    {
      "inputs": [
        {
          "internalType": "uint256",
          "name": "",
          "type": "uint256"
        }
      ],
      "name": "payments",
      "outputs": [
        {
          "internalType": "address",
          "name": "user",
          "type": "address"
        },
        {
          "internalType": "uint256",
          "name": "paymentMoment",
          "type": "uint256"
        },
        {
          "internalType": "uint256",
          "name": "paymentExpires",
          "type": "uint256"
        }
      ],
      "stateMutability": "view",
      "type": "function"
    },
    {
      "inputs": [],
      "name": "secondaryTokenForPayment",
      "outputs": [
        {
          "internalType": "contract IERC20",
          "name": "",
          "type": "address"
        }
      ],
      "stateMutability": "view",
      "type": "function"
    },
    {
      "inputs": [
        {
          "internalType": "uint256",
          "name": "_newErc20Fee",
          "type": "uint256"
        }
      ],
      "name": "setErc20Fee",
      "outputs": [],
      "stateMutability": "nonpayable",
      "type": "function"
    },
    {
      "inputs": [
        {
          "internalType": "uint256",
          "name": "_newEthFee",
          "type": "uint256"
        }
      ],
      "name": "setEthFee",
      "outputs": [],
      "stateMutability": "nonpayable",
      "type": "function"
    },
    {
      "inputs": [
        {
          "internalType": "address payable",
          "name": "_newOwner",
          "type": "address"
        }
      ],
      "name": "setNewOwner",
      "outputs": [],
      "stateMutability": "nonpayable",
      "type": "function"
    },
    {
      "inputs": [
        {
          "internalType": "uint256",
          "name": "_paymentOption",
          "type": "uint256"
        }
      ],
      "name": "setPaymentOption",
      "outputs": [],
      "stateMutability": "nonpayable",
      "type": "function"
    },
    {
      "inputs": [
        {
          "internalType": "contract IERC20",
          "name": "_newToken",
          "type": "address"
        }
      ],
      "name": "setTokenForPayment",
      "outputs": [],
      "stateMutability": "nonpayable",
      "type": "function"
    },
    {
      "inputs": [],
      "name": "totalPaymentsErc20",
      "outputs": [
        {
          "internalType": "uint256",
          "name": "",
          "type": "uint256"
        }
      ],
      "stateMutability": "view",
      "type": "function"
    },
    {
      "inputs": [],
      "name": "totalPaymentsEth",
      "outputs": [
        {
          "internalType": "uint256",
          "name": "",
          "type": "uint256"
        }
      ],
      "stateMutability": "view",
      "type": "function"
    },
    {
      "inputs": [],
      "name": "transferToOwner",
      "outputs": [],
      "stateMutability": "nonpayable",
      "type": "function"
    },
    {
      "inputs": [
        {
          "internalType": "address",
          "name": "",
          "type": "address"
        }
      ],
      "name": "userPayment",
      "outputs": [
        {
          "internalType": "address",
          "name": "user",
          "type": "address"
        },
        {
          "internalType": "uint256",
          "name": "paymentMoment",
          "type": "uint256"
        },
        {
          "internalType": "uint256",
          "name": "paymentExpires",
          "type": "uint256"
        }
      ],
      "stateMutability": "view",
      "type": "function"
    },
    {
      "inputs": [
        {
          "internalType": "address",
          "name": "",
          "type": "address"
        }
      ],
      "name": "userTotalPaymentsErc20",
      "outputs": [
        {
          "internalType": "uint256",
          "name": "",
          "type": "uint256"
        }
      ],
      "stateMutability": "view",
      "type": "function"
    },
    {
      "inputs": [
        {
          "internalType": "address",
          "name": "",
          "type": "address"
        }
      ],
      "name": "userTotalPaymentsEth",
      "outputs": [
        {
          "internalType": "uint256",
          "name": "",
          "type": "uint256"
        }
      ],
      "stateMutability": "view",
      "type": "function"
    },
    {
      "stateMutability": "payable",
      "type": "receive"
    }
  ],
  "bytecode": "0x608060405234801561001057600080fd5b50336000806101000a81548173ffffffffffffffffffffffffffffffffffffffff021916908373ffffffffffffffffffffffffffffffffffffffff16021790555060018081905550600160038190555060006008819055506000600a819055506611c37937e08000600681905550611fae8061008d6000396000f3fe6080604052600436106101395760003560e01c80638bdd4b7b116100ab578063c5eaa6f31161006f578063c5eaa6f3146104a2578063d63859e6146104df578063eae970561461050a578063ecd96fa614610549578063f5a1f5b414610565578063f942a48e1461058e576101ce565b80638bdd4b7b146103bd5780638da5cb5b146103e65780639b074b0a14610411578063a87f098f1461043a578063ad1db6d414610465576101ce565b80633f6738a9116100fd5780633f6738a9146102a85780634cf1115d146102d1578063563dbd0d146102fc57806359c77222146103395780637ac9b0981461036257806387d817891461037e576101ce565b806307d7fb9a146101d357806315d2a1ce146101fe5780632a4f370f1461023b5780632d90ae94146102665780632f47bf581461027d576101ce565b366101ce5760008054906101000a900473ffffffffffffffffffffffffffffffffffffffff1673ffffffffffffffffffffffffffffffffffffffff163373ffffffffffffffffffffffffffffffffffffffff16146101cc576040517f08c379a00000000000000000000000000000000000000000000000000000000081526004016101c390611767565b60405180910390fd5b005b600080fd5b3480156101df57600080fd5b506101e86105b9565b6040516101f591906117a0565b60405180910390f35b34801561020a57600080fd5b506102256004803603810190610220919061181e565b6105bf565b60405161023291906117a0565b60405180910390f35b34801561024757600080fd5b5061025061060b565b60405161025d91906117a0565b60405180910390f35b34801561027257600080fd5b5061027b610611565b005b34801561028957600080fd5b50610292610671565b60405161029f91906117a0565b60405180910390f35b3480156102b457600080fd5b506102cf60048036038101906102ca9190611877565b610677565b005b3480156102dd57600080fd5b506102e661070f565b6040516102f391906117a0565b60405180910390f35b34801561030857600080fd5b50610323600480360381019061031e919061181e565b610715565b60405161033091906117a0565b60405180910390f35b34801561034557600080fd5b50610360600480360381019061035b91906118e2565b61072d565b005b61037c60048036038101906103779190611877565b6107ff565b005b34801561038a57600080fd5b506103a560048036038101906103a09190611877565b610bbb565b6040516103b49392919061191e565b60405180910390f35b3480156103c957600080fd5b506103e460048036038101906103df9190611877565b610c15565b005b3480156103f257600080fd5b506103fb610cfb565b6040516104089190611976565b60405180910390f35b34801561041d57600080fd5b5061043860048036038101906104339190611877565b610d1f565b005b34801561044657600080fd5b5061044f610db7565b60405161045c91906117a0565b60405180910390f35b34801561047157600080fd5b5061048c6004803603810190610487919061181e565b610dbd565b60405161049991906117a0565b60405180910390f35b3480156104ae57600080fd5b506104c960048036038101906104c4919061181e565b610e8d565b6040516104d691906117a0565b60405180910390f35b3480156104eb57600080fd5b506104f4610ea5565b60405161050191906119f0565b60405180910390f35b34801561051657600080fd5b50610531600480360381019061052c919061181e565b610ecb565b6040516105409392919061191e565b60405180910390f35b610563600480360381019061055e9190611877565b610f15565b005b34801561057157600080fd5b5061058c60048036038101906105879190611a37565b6112ea565b005b34801561059a57600080fd5b506105a36113bb565b6040516105b091906117a0565b60405180910390f35b60075481565b6000600560008373ffffffffffffffffffffffffffffffffffffffff1673ffffffffffffffffffffffffffffffffffffffff168152602001908152602001600020600101549050919050565b60015481565b60008054906101000a900473ffffffffffffffffffffffffffffffffffffffff1673ffffffffffffffffffffffffffffffffffffffff166108fc479081150290604051600060405180830381858888f1935050505061066f57600080fd5b565b600a5481565b60008054906101000a900473ffffffffffffffffffffffffffffffffffffffff1673ffffffffffffffffffffffffffffffffffffffff163373ffffffffffffffffffffffffffffffffffffffff1614610705576040517f08c379a00000000000000000000000000000000000000000000000000000000081526004016106fc90611767565b60405180910390fd5b8060068190555050565b60065481565b60096020528060005260406000206000915090505481565b60008054906101000a900473ffffffffffffffffffffffffffffffffffffffff1673ffffffffffffffffffffffffffffffffffffffff163373ffffffffffffffffffffffffffffffffffffffff16146107bb576040517f08c379a00000000000000000000000000000000000000000000000000000000081526004016107b290611767565b60405180910390fd5b80600260006101000a81548173ffffffffffffffffffffffffffffffffffffffff021916908373ffffffffffffffffffffffffffffffffffffffff16021790555050565b60016003540361090d57806006546108179190611a93565b3414610858576040517f08c379a000000000000000000000000000000000000000000000000000000000815260040161084f90611b21565b60405180910390fd5b61086d346008546113c190919063ffffffff16565b6008819055506108c534600960003373ffffffffffffffffffffffffffffffffffffffff1673ffffffffffffffffffffffffffffffffffffffff168152602001908152602001600020546113c190919063ffffffff16565b600960003373ffffffffffffffffffffffffffffffffffffffff1673ffffffffffffffffffffffffffffffffffffffff16815260200190815260200160002081905550610a3b565b6109693330836007546109209190611a93565b600260009054906101000a900473ffffffffffffffffffffffffffffffffffffffff1673ffffffffffffffffffffffffffffffffffffffff166113d7909392919063ffffffff16565b6109926109818260075461146090919063ffffffff16565b600a546113c190919063ffffffff16565b600a819055506109f7816007546109a99190611a93565b600b60003373ffffffffffffffffffffffffffffffffffffffff1673ffffffffffffffffffffffffffffffffffffffff168152602001908152602001600020546113c190919063ffffffff16565b600b60003373ffffffffffffffffffffffffffffffffffffffff1673ffffffffffffffffffffffffffffffffffffffff168152602001908152602001600020819055505b600060405180606001604052803373ffffffffffffffffffffffffffffffffffffffff168152602001428152602001610a8b62278d0085610a7c9190611a93565b426113c190919063ffffffff16565b8152509050600481908060018154018082558091505060019003906000526020600020906003020160009091909190915060008201518160000160006101000a81548173ffffffffffffffffffffffffffffffffffffffff021916908373ffffffffffffffffffffffffffffffffffffffff1602179055506020820151816001015560408201518160020155505080600560003373ffffffffffffffffffffffffffffffffffffffff1673ffffffffffffffffffffffffffffffffffffffff16815260200190815260200160002060008201518160000160006101000a81548173ffffffffffffffffffffffffffffffffffffffff021916908373ffffffffffffffffffffffffffffffffffffffff16021790555060208201518160010155604082015181600201559050505050565b60048181548110610bcb57600080fd5b90600052602060002090600302016000915090508060000160009054906101000a900473ffffffffffffffffffffffffffffffffffffffff16908060010154908060020154905083565b60008054906101000a900473ffffffffffffffffffffffffffffffffffffffff1673ffffffffffffffffffffffffffffffffffffffff163373ffffffffffffffffffffffffffffffffffffffff1614610ca3576040517f08c379a0000000000000000000000000000000000000000000000000000000008152600401610c9a90611767565b60405180910390fd5b6001811480610cb25750600281145b610cf1576040517f08c379a0000000000000000000000000000000000000000000000000000000008152600401610ce890611b8d565b60405180910390fd5b8060038190555050565b60008054906101000a900473ffffffffffffffffffffffffffffffffffffffff1681565b60008054906101000a900473ffffffffffffffffffffffffffffffffffffffff1673ffffffffffffffffffffffffffffffffffffffff163373ffffffffffffffffffffffffffffffffffffffff1614610dad576040517f08c379a0000000000000000000000000000000000000000000000000000000008152600401610da490611767565b60405180910390fd5b8060078190555050565b60085481565b6000600560008373ffffffffffffffffffffffffffffffffffffffff1673ffffffffffffffffffffffffffffffffffffffff168152602001908152602001600020600201544210610e43576040517f08c379a0000000000000000000000000000000000000000000000000000000008152600401610e3a90611bf9565b60405180910390fd5b600560008373ffffffffffffffffffffffffffffffffffffffff1673ffffffffffffffffffffffffffffffffffffffff168152602001908152602001600020600201549050919050565b600b6020528060005260406000206000915090505481565b600260009054906101000a900473ffffffffffffffffffffffffffffffffffffffff1681565b60056020528060005260406000206000915090508060000160009054906101000a900473ffffffffffffffffffffffffffffffffffffffff16908060010154908060020154905083565b600160035403610ff457610f348160065461146090919063ffffffff16565b3414610f3f57600080fd5b610f54346008546113c190919063ffffffff16565b600881905550610fac34600960003373ffffffffffffffffffffffffffffffffffffffff1673ffffffffffffffffffffffffffffffffffffffff168152602001908152602001600020546113c190919063ffffffff16565b600960003373ffffffffffffffffffffffffffffffffffffffff1673ffffffffffffffffffffffffffffffffffffffff16815260200190815260200160002081905550611122565b6110503330836007546110079190611a93565b600260009054906101000a900473ffffffffffffffffffffffffffffffffffffffff1673ffffffffffffffffffffffffffffffffffffffff166113d7909392919063ffffffff16565b6110796110688260075461146090919063ffffffff16565b600a546113c190919063ffffffff16565b600a819055506110de816007546110909190611a93565b600b60003373ffffffffffffffffffffffffffffffffffffffff1673ffffffffffffffffffffffffffffffffffffffff168152602001908152602001600020546113c190919063ffffffff16565b600b60003373ffffffffffffffffffffffffffffffffffffffff1673ffffffffffffffffffffffffffffffffffffffff168152602001908152602001600020819055505b600061118762278d00836111369190611a93565b600560003373ffffffffffffffffffffffffffffffffffffffff1673ffffffffffffffffffffffffffffffffffffffff168152602001908152602001600020600201546113c190919063ffffffff16565b9050600060405180606001604052803373ffffffffffffffffffffffffffffffffffffffff168152602001428152602001838152509050600481908060018154018082558091505060019003906000526020600020906003020160009091909190915060008201518160000160006101000a81548173ffffffffffffffffffffffffffffffffffffffff021916908373ffffffffffffffffffffffffffffffffffffffff1602179055506020820151816001015560408201518160020155505080600560003373ffffffffffffffffffffffffffffffffffffffff1673ffffffffffffffffffffffffffffffffffffffff16815260200190815260200160002060008201518160000160006101000a81548173ffffffffffffffffffffffffffffffffffffffff021916908373ffffffffffffffffffffffffffffffffffffffff1602179055506020820151816001015560408201518160020155905050505050565b60008054906101000a900473ffffffffffffffffffffffffffffffffffffffff1673ffffffffffffffffffffffffffffffffffffffff163373ffffffffffffffffffffffffffffffffffffffff1614611378576040517f08c379a000000000000000000000000000000000000000000000000000000000815260040161136f90611767565b60405180910390fd5b806000806101000a81548173ffffffffffffffffffffffffffffffffffffffff021916908373ffffffffffffffffffffffffffffffffffffffff16021790555050565b60035481565b600081836113cf9190611c19565b905092915050565b61145a846323b872dd60e01b8585856040516024016113f893929190611c4d565b604051602081830303815290604052907bffffffffffffffffffffffffffffffffffffffffffffffffffffffff19166020820180517bffffffffffffffffffffffffffffffffffffffffffffffffffffffff8381831617835250505050611476565b50505050565b6000818361146e9190611a93565b905092915050565b60006114d8826040518060400160405280602081526020017f5361666545524332303a206c6f772d6c6576656c2063616c6c206661696c65648152508573ffffffffffffffffffffffffffffffffffffffff1661153d9092919063ffffffff16565b905060008151111561153857808060200190518101906114f89190611cbc565b611537576040517f08c379a000000000000000000000000000000000000000000000000000000000815260040161152e90611d5b565b60405180910390fd5b5b505050565b606061154c8484600085611555565b90509392505050565b60608247101561159a576040517f08c379a000000000000000000000000000000000000000000000000000000000815260040161159190611ded565b60405180910390fd5b6000808673ffffffffffffffffffffffffffffffffffffffff1685876040516115c39190611e7e565b60006040518083038185875af1925050503d8060008114611600576040519150601f19603f3d011682016040523d82523d6000602084013e611605565b606091505b509150915061161687838387611622565b92505050949350505050565b6060831561168457600083510361167c5761163c85611697565b61167b576040517f08c379a000000000000000000000000000000000000000000000000000000000815260040161167290611ee1565b60405180910390fd5b5b82905061168f565b61168e83836116ba565b5b949350505050565b6000808273ffffffffffffffffffffffffffffffffffffffff163b119050919050565b6000825111156116cd5781518083602001fd5b806040517f08c379a00000000000000000000000000000000000000000000000000000000081526004016117019190611f56565b60405180910390fd5b600082825260208201905092915050565b7f596f7520617265206e6f7420746865206f776e65720000000000000000000000600082015250565b600061175160158361170a565b915061175c8261171b565b602082019050919050565b6000602082019050818103600083015261178081611744565b9050919050565b6000819050919050565b61179a81611787565b82525050565b60006020820190506117b56000830184611791565b92915050565b600080fd5b600073ffffffffffffffffffffffffffffffffffffffff82169050919050565b60006117eb826117c0565b9050919050565b6117fb816117e0565b811461180657600080fd5b50565b600081359050611818816117f2565b92915050565b600060208284031215611834576118336117bb565b5b600061184284828501611809565b91505092915050565b61185481611787565b811461185f57600080fd5b50565b6000813590506118718161184b565b92915050565b60006020828403121561188d5761188c6117bb565b5b600061189b84828501611862565b91505092915050565b60006118af826117e0565b9050919050565b6118bf816118a4565b81146118ca57600080fd5b50565b6000813590506118dc816118b6565b92915050565b6000602082840312156118f8576118f76117bb565b5b6000611906848285016118cd565b91505092915050565b611918816117e0565b82525050565b6000606082019050611933600083018661190f565b6119406020830185611791565b61194d6040830184611791565b949350505050565b6000611960826117c0565b9050919050565b61197081611955565b82525050565b600060208201905061198b6000830184611967565b92915050565b6000819050919050565b60006119b66119b16119ac846117c0565b611991565b6117c0565b9050919050565b60006119c88261199b565b9050919050565b60006119da826119bd565b9050919050565b6119ea816119cf565b82525050565b6000602082019050611a0560008301846119e1565b92915050565b611a1481611955565b8114611a1f57600080fd5b50565b600081359050611a3181611a0b565b92915050565b600060208284031215611a4d57611a4c6117bb565b5b6000611a5b84828501611a22565b91505092915050565b7f4e487b7100000000000000000000000000000000000000000000000000000000600052601160045260246000fd5b6000611a9e82611787565b9150611aa983611787565b9250828202611ab781611787565b91508282048414831517611ace57611acd611a64565b5b5092915050565b7f76616c7565206973206e6f742073756666696369656e74000000000000000000600082015250565b6000611b0b60178361170a565b9150611b1682611ad5565b602082019050919050565b60006020820190508181036000830152611b3a81611afe565b9050919050565b7f496e76616c6964206f7074696f6e210000000000000000000000000000000000600082015250565b6000611b77600f8361170a565b9150611b8282611b41565b602082019050919050565b60006020820190508181036000830152611ba681611b6a565b9050919050565b7f796f7520737562736372697074696f6e20657870697265640000000000000000600082015250565b6000611be360188361170a565b9150611bee82611bad565b602082019050919050565b60006020820190508181036000830152611c1281611bd6565b9050919050565b6000611c2482611787565b9150611c2f83611787565b9250828201905080821115611c4757611c46611a64565b5b92915050565b6000606082019050611c62600083018661190f565b611c6f602083018561190f565b611c7c6040830184611791565b949350505050565b60008115159050919050565b611c9981611c84565b8114611ca457600080fd5b50565b600081519050611cb681611c90565b92915050565b600060208284031215611cd257611cd16117bb565b5b6000611ce084828501611ca7565b91505092915050565b7f5361666545524332303a204552433230206f7065726174696f6e20646964206e60008201527f6f74207375636365656400000000000000000000000000000000000000000000602082015250565b6000611d45602a8361170a565b9150611d5082611ce9565b604082019050919050565b60006020820190508181036000830152611d7481611d38565b9050919050565b7f416464726573733a20696e73756666696369656e742062616c616e636520666f60008201527f722063616c6c0000000000000000000000000000000000000000000000000000602082015250565b6000611dd760268361170a565b9150611de282611d7b565b604082019050919050565b60006020820190508181036000830152611e0681611dca565b9050919050565b600081519050919050565b600081905092915050565b60005b83811015611e41578082015181840152602081019050611e26565b60008484015250505050565b6000611e5882611e0d565b611e628185611e18565b9350611e72818560208601611e23565b80840191505092915050565b6000611e8a8284611e4d565b915081905092915050565b7f416464726573733a2063616c6c20746f206e6f6e2d636f6e7472616374000000600082015250565b6000611ecb601d8361170a565b9150611ed682611e95565b602082019050919050565b60006020820190508181036000830152611efa81611ebe565b9050919050565b600081519050919050565b6000601f19601f8301169050919050565b6000611f2882611f01565b611f32818561170a565b9350611f42818560208601611e23565b611f4b81611f0c565b840191505092915050565b60006020820190508181036000830152611f708184611f1d565b90509291505056fea264697066735822122027c7b8f84973c55a47778c16cc95a145cbae9ca3a7972b169e196110142c539564736f6c63430008110033",
  "linkReferences": {},
  "deployedLinkReferences": {}
}